S00F000053504920504F542E7372656316
S11300008FC10000AEC10000ACC10000AAC1000055
S1130010A8C10000A6C10000A4C10000A2C1000044
S1130020A0C100009EC100009CC100009AC1000054
S113003098C1000096C1000094C1000092C1000064
S113004090C100008EC100008CC100008AC1000074
S113005088C1000086C1000084C1000082C1000084
S113006080C100007EC100007CC100007AC1000094
S113007078C1000076C1000074C1000072C10000A4
S113008070C100006EC100006CC100006AC10000B4
S113009068C1000066C1000064C1000062C10000C4
S11300A060C100005EC100005CC100005AC10000D4
S11300B058C1000056C1000054C1000052C10000E4
S11300C050C100004EC100004CC100004AC10000F4
S11300D048C1000046C1000044C1000042C1000004
S11300E040C100003EC100003CC100003AC1000014
S11300F038C1000036C1000034C1000032C1000024
S113010030C100002EC100002CC100002AC1000033
S113011028C1000026C1000024C1000062C1000003
S113012020C100001EC100001CC100001AC1000053
S113013018C1000016C1000014C1000012C1000063
S113014010C100000EC100000CC100000AC1000073
S113015008C1000006C1000004C1000002C1000083
S113016000C10000FEC00000FCC00000FAC0000096
S1130170F8C00000F6C00000F4C00000F2C00000A7
S1130180F0C00000EEC00000ECC00000EAC00000B7
S1130190E8C00000E6C00000E4C00000E2C00000C7
S11301A0E0C00000DEC00000DCC00000DAC00000D7
S11301B0D8C00000D6C00000D4C00000D2C00000E7
S11301C0D0C00000CEC00000CCC00000CAC00000F7
S11301D0C8C00000C6C00000C4C00000C2C0000007
S11301E0C0C00000BEC00000BCC00000BAC0000017
S11301F0B8C000000C940B130C94C513210F0F0FFF
S1130200120F150F180F1B0F1E0F6A167E166C1691
S11302106E16701672167416761678167A166E6145
S11302206E00696E660000407A10F35A00A0724EA8
S113023018090010A5D4E80000E87648170000E487
S11302400B54020000CA9A3B000000E1F5050000CF
S113025080969800000040420F000000A086010034
S11302600000102700000000E80300000000640004
S1130270000000000A00000000000100000000006F
S11302802C76D888DC674F0823DFC1DFAE59E1B193
S1130290B796E5E3E453C63AE651997696E8E6C2A2
S11302A08426EB898C9B62ED407C6FFCEFBC9C9FA9
S11302B040F2BAA56FA5F490055A2AF75C936B6CCB
S11302C0F9676DC11BFCE0E40D47FEF520E6B500BF
S11302D0D0ED902E0300943577050080841E08002D
S11302E000204E0A000000C80C333333330F986EDD
S11302F012831141EF8D2114893BE65516CFFEE69A
S1130300DB18D1844B381BF77C1D901DA4BBE4245F
S1130310203284725E228100C9F124ECA1E53D27DC
S113032011241FBECFEFCDBFDFE9DEBF00E00CBF5D
S113033011E2A0E0B0E2E8ECFFE300E00BBF02C092
S113034007900D92A036B107D9F723E2A0E6B1E2F7
S113035001C01D92AF30B207E1F70E94CF160C9492
S1130360E21F4ECE2FB7F8948115924021F460938A
S1130370E9227093EA222FBF08958115924059F41F
S11303808091602191E0980F90936021811103C0C6
S113039062E081E080C508958115924051F4809116
S11303A06021815080936021811103C062E081E06B
S11303B07EC508951F93CF93DF93EC011FB7F89484
S11303C0DCDF8881816088831FBF8FB7F894E6EFF4
S11303D0F2E290819F5F90838FBFDF91CF911F9155
S11303E008951F920F920FB60F9211240BB60F921D
S11303F02F933F934F935F936F937F938F939F9329
S1130400AF93BF93EF93FF93E0E0F2E044A155A1D3
S1130410E091E922F091EA2261E080E092E019950E
S1130420FF91EF91BF91AF919F918F917F916F91C8
S11304305F914F913F912F910F900BBE0F900FBE84
S11304400F901F901895DF92EF92FF920F931F93D6
S1130450CF93DF93EC018B01C11582E0D80751F5EE
S113046061E270E082E00E94D10DE82EF12C60E29E
S113047070E082E00E94D10DFE2CEE24E82ADFB663
S1130480F894CE017ADF2881217082E08883EC869B
S1130490FD86F80184819581888F998F81818A8373
S11304A083818C8382818B83808189832883CE019D
S11304B073DFDFBEDF91CF911F910F91FF90EF901B
S11304C0DF900895FF920F931F93CF93DF93EC0176
S11304D08B01FFB6F89451DF888D998DF8018483E0
S11304E095838A8181838C8183838B8182838981B3
S11304F08083CE0151DFFFBEDF91CF911F910F9119
S1130500FF900895FF920F931F93CF93DF93EC0115
S11305108A01FFB6F89431DFF801808188A38281D3
S11305208AA3818189A383818EA3CE0135DFFFBE97
S1130530DF91CF911F910F91FF900895FF920F9338
S11305401F93CF93DF93EC018A01FFB6F89415DF74
S113055088A1F80180838AA1828389A181838EA1E5
S11305608383CE0119DFFFBEDF91CF911F910F91DD
S1130570FF9008950895CF93DF93E0E2F6E080E1E1
S1130580828380E282836BEE72E280E092E09ADF03
S113059041EF52E261E080E092E0D0DFCBEED2E2C4
S11305A08881ECEEF2E290819F789083817E806175
S11305B088831092ED2287E08093EE226AEB72E04A
S11305C080E092E0CFDEE3EFF2E280818C7F816015
S11305D08083888180668883BE0180E092E033DF77
S11305E041EF52E261E080E092E08CDF80E092E053
S11305F0E1DE41E050E061E080EA96E099D443E036
S113060050E062E080EA96E093D4DF91CF910895C0
S11306104F925F926F927F92AF92BF92CF92DF928E
S1130620EF92FF920F931F93CF93DF93C82F6A012A
S11306307B0141EF52E261E080E092E07FDFC03174
S113064048F01092F122C051CC0FCC0FCC0FC093C4
S1130650F22208C081E08093F122CC0FCC0FCC0FA2
S1130660C093F22241EF52E261E080E092E04ADF7F
S1130670E8E4F0E08081817F8083808181608083F1
S11306808FB7F894E0E0F2E09081946090838FBF9C
S11306908895E8E4F0E080818E7F808320E030E07C
S11306A0A901C701B6010E94BC1818160CF03FC07E
S11306B0412C512C320100E010E0C8E4D0E0A12C20
S11306C06894BB24B1F88881817F888388818160A4
S11306D088838FB7F894F5019081946090838FBFDD
S11306E0889588818E7F8883F50164A175A1882708
S11306F077FD8095982F0E940C18A70196010E94FF
S113070076179B01AC01C301B2010E940E172B01A5
S11307103C010F5F1F4FB80180E090E00E940A186F
S1130720A70196010E94721788236CF203C0412C22
S1130730512C3201C301B201DF91CF911F910F916E
S1130740FF90EF90DF90CF90BF90AF907F906F902D
S11307505F904F90089540E050E060E873E48CE0CF
S113076057CF089540E050E060E873E48DE050CF47
S11307700895F1DF20E030EE4FEF54E40C94761747
S11307800895F0DF20E030EE4FEF54E40C94761738
S11307900895EFDF20E030E846E154E40E94C018F9
S11307A020E030E048E453E40C9476170895E9DF40
S11307B020E030E04FE753E40E94C01820E030E02E
S11307C044EA51E40E94761720E030E040E251E42C
S11307D00C9476170895CF92DF92EF92FF92D9DFAF
S11307E06B017C01E4DF9B01AC01C701B6010E94EF
S11307F0C018FF90EF90DF90CF9008950F931F9350
S1130800E0EAF6E082E0868381E0868380E49DE08E
S1130810A3E0B0E00197A109B1090097A105B105D2
S1130820C9F7B7DF22E0E0EAF6E0258300E41DE043
S113083023E030E0015011092109310901151105A6
S113084021053105B9F71F910F9108950F931F9357
S1130850E0EAF6E082E0868381E0858380E49DE03F
S1130860A3E0B0E00197A109B1090097A105B10582
S1130870C9F79DDFE0EAF6E021E0268322E0258344
S113088000E41DE023E030E00150110921093109A1
S11308900115110521053105B9F71F910F9108952F
S11308A0CF92DF92EF92FF920F931F93CF93DF9338
S11308B0FC012081222389F1E12CE394FC01EE0D5B
S11308C0F11D20812111F9CF0E2D10E001501109E5
S11308D0112334F17F01C1E0D0E0C12CD12CF1E02F
S11308E0EF1AF108F70180810E945D16F82FFC9F32
S11308F0C001FD9F900D1124C80ED91ECE01880F92
S1130900991FCC0FDD1FCC0FDD1FCC0FDD1FC80FCF
S1130910D91F0150110918F705C0C12CD12C02C0F0
S1130920C12CD12CC601DF91CF911F910F91FF9063
S1130930EF90DF90CF900895DF92EF92FF920F93A4
S11309401F93CF93DF93CDB7DEB7C054D109CDBF8A
S1130950DEBFDC01DD90CD01A3DFF82EE92E0E947D
S113096080168C01FE01319680E4DF011D928A9588
S1130970E9F7B3E3DB1609F445C0BD153CF0E1E348
S1130980DE1681F0F2E3DF1639F1A1C025E3D216B9
S113099009F468C0D2160CF44BC036E3D31609F43C
S11309A07BC095C00E94DD150E94A4167C018CE1D9
S11309B0E7E9F0E2DE01119601900D928A95E1F7E4
S11309C0B701CE0101960E94141FCE010196BAD33D
S11309D0C7010E94921DA9C088E1E3EBF0E2DE01A9
S11309E0119601900D928A95E1F7B801CE01019616
S11309F00E94141FCE010196A5D38F2D9E2D0E9417
S1130A00411593C08EE1EBECF0E2DE01119601900A
S1130A100D928A95E1F7B801CE0101960E94141F48
S1130A20CE0101968FD38F2D9E2D0E9423157DC05C
S1130A300E9491150E94A4167C0185E1E9EEF0E282
S1130A40DE01119601900D928A95E1F7B701CE016E
S1130A5001960E94141FCE01019674D3C7010E940F
S1130A60921D63C00E945C150E9480167C0180E187
S1130A70EEEFF0E2DE01119601900D928A95E1F716
S1130A80B701CE0101960E94141FCE0101965AD3DC
S1130A90C7010E94921D49C08F2D0E94A6150E9475
S1130AA080167C0183E1EEE0F1E2DE011196019013
S1130AB00D928A95E1F7B701CE0101960E94141FA9
S1130AC0CE0101963FD3C7010E94921D2EC086E13C
S1130AD0E1E2F1E2DE0111967D0101900D928A9529
S1130AE0E1F7F70101900020E9F73197EE19FF09CA
S1130AF0FF27D701AE0FBF1FDC92EC0FFD1F128240
S1130B00F70101900020E9F731972AE330E240E051
S1130B10208331834283B801C7010E94141FC70197
S1130B2011D381E0E0EEF7E08683C8010E94921DB4
S1130B30C05CDF4FCDBFDEBFDF91CF911F910F911E
S1130B40FF90EF90DF900895EF92FF920F931F9321
S1130B50CF93DF93CDB7DEB7C054D109CDBFDEBF8D
S1130B6018DE8E010F5F1F4F20E4F80111922A95C1
S1130B70E9F70E94A4167C0186E0E7E3F1E2D801DC
S1130B8001900D928A95E1F7B701C8010E94141FE4
S1130B90C801D8D2C7010E94921D80EC97E2A9E057
S1130BA0B0E00197A109B1090097A105B105C9F702
S1130BB0C05CDF4FCDBFDEBFDF91CF911F910F919E
S1130BC0FF90EF900895EF92FF920F931F93CF93AE
S1130BD0DF93CDB7DEB7C054D109CDBFDEBFE7DDAB
S1130BE08E010F5F1F4F20E4F80111922A95E9F757
S1130BF00E94A4167C0186E0EDE3F1E2D8010190A5
S1130C000D928A95E1F7B701C8010E94141FC8012B
S1130C1099D2C7010E94921D80EC97E2A9E0B0E04E
S1130C200197A109B1090097A105B105C9F7C05CF5
S1130C30DF4FCDBFDEBFDF91CF911F910F91FF90AA
S1130C40EF900895EF92FF920F931F93CF93DF934A
S1130C50CDB7DEB7C054D109CDBFDEBFBCDD8E0138
S1130C600F5F1F4F20E4F80111922A95E9F70E94C3
S1130C70A4167C0185E0E3E4F1E2D80101900D9231
S1130C808A95E1F7B701C8010E94141FC8015AD21E
S1130C90C7010E94921D80EC97E2A9E0B0E00197A1
S1130CA0A109B1090097A105B105C9F7C05CDF4FDF
S1130CB0CDBFDEBFDF91CF911F910F91FF90EF90D9
S1130CC00895EF92FF920F931F93CF93DF93CDB7C5
S1130CD0DEB7C054D109CDBFDEBF90DD8E010F5FFA
S1130CE01F4F20E4F80111922A95E9F70E94A416F7
S1130CF07C0187E0E8E4F1E2D80101900D928A9545
S1130D00E1F7B701C8010E94141FC8011BD2C70133
S1130D100E94921D80EC97E2A9E0B0E00197A1093E
S1130D20B1090097A105B105C9F7C05CDF4FCDBF7C
S1130D30DEBFDF91CF911F910F91FF90EF90089547
S1130D40EF92FF920F931F93CF93DF93CDB7DEB74C
S1130D50C054D109CDBFDEBF79DD8E010F5F1F4FB7
S1130D6020E4F80111922A95E9F70E94A4167C0167
S1130D7087E0EFE4F1E2D80101900D928A95E1F762
S1130D80B701C8010E94141FC801DCD1C7010E9429
S1130D90921D80EC97E2A9E0B0E00197A109B109A6
S1130DA00097A105B105C9F7C05CDF4FCDBFDEBF19
S1130DB0DF91CF911F910F91FF90EF900895CF9302
S1130DC0DF9300D01F92CDB7DEB78FEF8093700012
S1130DD080937100809372008093730080937400F9
S1130DE0809375008093760065E081E490E0D3D62B
S1130DF06CE170E082E0D5D68A836DE170E082E038
S1130E00D0D6898389819A81019621F480E493E282
S1130E1089839A8389819A818B839C83E0E6F0E0BD
S1130E2082838C8183838FB7F894E0E5F0E090812E
S1130E30926090838FBF818181FFFDCF8FB7F8943B
S1130E40A0E5B0E016969C911697997F16969C9310
S1130E501697E0E6F0E090E895839BEB9683169670
S1130E609C911697946016969C93908191609083C0
S1130E708FBF61E080E490E08ED68FB7F894E0E510
S1130E80F0E090819E7F90838FBF2496CDBFDEBF1C
S1130E90DF91CF9108959FB7F894E82FF0E0E059DF
S1130EA0FF4F60958081682360839FBF08959FB73B
S1130EB0F894E82FF0E0E059FF4F8081682B6083BD
S1130EC09FBF0895863011F468E101C060E0E0E559
S1130ED0F0E0818181FD24C08FB7F8949081926005
S1130EE090838FBF818181FFFDCF8FB7F894A0E5F8
S1130EF0B0E016969C911697997F16969C93169738
S1130F00E0E6F0E090E895839BEB968316969C913F
S1130F101697946016969C939081916090838FBFEE
S1130F20636084E490E037D660E480E0B4CF089551
S1130F30CF93DF93FC01709620E030E0C62FD0E021
S1130F40DE01022E02C0B595A7950A94E2F7A0FD32
S1130F5050832F5F3F4F31962830310589F740FF8A
S1130F600AC041FF03C0FC01658302C0FC01668323
S1130F70FC01618302C0FC016283DF91CF9108957B
S1130F80CF93DF93EC01C03C28E0D20721F468E062
S1130F9083E081DF06C0803C994019F468E084E076
S1130FA07ADF888180618883DF91CF910895FF92F1
S1130FB00F931F93CF93DF93EC01F42EB901A80193
S1130FC000E01BE127EB30E0F6D588234CF0888164
S1130FD09F2D990F990F9C70837FF92EF82AF88220
S1130FE0DF91CF911F910F91FF900895FC01DB01D8
S1130FF0460F571F05C08D91838382818823ECF7A8
S1131000A417B507C1F780E00895FC01DB01411581
S1131010510561F0460F571F9FEF93838281882308
S1131020ECF783818D93A417B507B9F780E0089591
S1131030FB018081E82FE695E695E69540E2E49F82
S1131040F0011124FA5F877021E030E0A90102C0A9
S1131050440F551F8A95E2F746830895FB0180816A
S1131060E82FE695E695E69540E2E49FF001112429
S1131070FA5F877021E030E0A90102C0440F551FD8
S11310808A95E2F745830895089580E008953091A4
S1131090FD222091FE22822F90E00397E1F431118A
S11310A01CC080910123909102230497C1F482E62D
S11310B091E2809303239093042381E798E0809343
S11310C007239093082384E090E080930523909372
S11310D0062381E0089580E0089580E0089580E08B
S11310E00895089581E08093E62108950F931F9356
S11310F00EE818E020E430E046E651E260E082E0E9
S11311000E940C121F910F9108951092EA211092DF
S1131110E82181E08093E621E9CF0895811107C099
S11311206034710519F486E691E206DCDFCF089598
S113113027E438E046E050E268EE71E28AEE91E29C
S113114032C008950F931F93CF932091E621222359
S113115029F1CFB7F89420E4E6EAF1E2DF011D9229
S11311602A95E9F720E4FC01A6EAB1E201900D9288
S11311702A95E1F702E718E020E430E046EA51E27C
S113118060E081E80E940C1291E089278093E621B7
S1131190CFBF9091E62181E0892701C080E0CF9103
S11311A01F910F910895CF93DF93EA014091FB22A1
S11311B044230CF062C0407609F040C02091FC2228
S11311C02630E1F56ED1FC012285213299F520917A
S11311D0FE222132B9F49C01275F3F4F2093032361
S11311E0309304238185209101233091022390E0E0
S11311F02817390708F4C90180930523909306231F
S113120081E064C0FC013785231316C0C093032317
S1131210D093042320893189809101239091022362
S11312202817390708F4C9018093052390930623EE
S113123081E04CC080E04AC080E048C04032E9F51B
S11312402091FC22223019F0233061F038C08093C1
S113125003239093042381E090E0809305239093EB
S1131260062334C0609303237093042381E090E049
S1131270809305239093062329C04076403209F5D4
S11312804091FC224A3039F04B3059F04930D9F4BE
S1131290F90119951BC02091FE22FC01208381E0F5
S11312A015C08091012390910223892B71F48091C0
S11312B0FD22FB01808381E009C080E007C080E05B
S11312C005C080E003C080E001C080E0DF91CF91E1
S11312D00895E091F121F091F2210190F081E02D47
S11312E0228133812E0F3F1FFC014081E40FF11D49
S11312F0E217F307A0F481818430A1F0861306C0BD
S113130014C081818430A1F08617A9F08081E80F90
S1131310F11DE217F307A8F380E090E0089580E060
S113132090E0089580E090E008958E2F9F2F089517
S113133080E090E008958E2F9F2F08958091FD22E4
S11313408F77B5C708959091F321992381F1E091A6
S1131350F121F091F2210190F081E02D948189171F
S113136040F5E093EF21F093F021228133812E0F99
S11313703F1FE217F307F8F49181943061F49281EE
S1131380981309C09381961306C0E093EF21F0935C
S1131390F02181E008959081E90FF11DE217F30730
S11313A058F3E093EF21F093F02180E0089580E07A
S11313B0089580E0089580E00895FF920F931F93AD
S11313C0CF93DF93C82F60E0BEDFF82E882381F12E
S11313D0A091F121B091F221EC2FF0E0EE0FFF1F6C
S11313E012962D913C911397E20FF31F0081118106
S11313F0D8011696ED91FC9117971995682F8C2FAB
S1131400A2DFF82E8823A1F0C091EF21D091F02122
S113141065E0CE015EDFEC01009721F08A810E9435
S1131420CD12F6CFD8011296ED91FC911397199530
S11314308F2DDF91CF911F910F91FF9008951F93EE
S1131440CF93DF93182F7FDF882339F1C091EF21E9
S1131450D091F02165E0CE013CDFEC01009741F032
S11314604C815D816B818A8131D78111F3CF15C0A5
S1131470A091F121B091F221812F90E0880F991F62
S11314801296ED91FC911397E80FF91F0190F081EA
S1131490E02D0190F081E02D1995DF91CF911F91FE
S11314A008958091EF219091F02108958EC60895BA
S11314B0CF938091F3218823C1F0E091F121F09141
S11314C0F2210190F081E02D8481882371F0C0E045
S11314D08C2F73DFCF5FE091F121F091F221019025
S11314E0F081E02D8481C81798F31092F3211092B3
S11314F0F4211092F521CF910895CF938091F32197
S1131500882341F1E091F121F091F221A081B18190
S113151014968C918823F1F0C0E08C2F90E0880F12
S1131520991F0280F381E02DE80FF91F0190F081EB
S1131530E02D0084F185E02D309709F01995CF5FF7
S1131540E091F121F091F221A081B18114968C9166
S1131550C81718F3CF910895EF92FF920F931F933A
S1131560CF93DF9310920523109206231092072342
S1131570109208231092092310920A232091FB222F
S113158022230CF065C280910123909102230097DD
S113159009F063C259C22F7109F08BC03091FC224B
S11315A0363081F0383009F479C0311182C00297A5
S11315B039F462E070E084EF91E27FD601E0C7C1C4
S11315C000E0C5C12091FD223091FE22832F99278E
S11315D08230910599F01CF4019739F055C083309D
S11315E09105D1F10F9759F14FC080914520909109
S11315F04620DC016C9170E060D635C0E091452056
S1131600F09146208189281708F040C0C901992724
S1131610880F991F880F991FE0914720F091482067
S1131620E80FF91F80819181FC016281738145D6A5
S1131630E0910323F091042382E0818314C080911C
S1131640492090914A20009719F1DC0112966D917E
S11316507C91139732D607C021111CC064E070E05E
S11316608EE890E22AD68091012390910223209162
S11316700523309106238217930770F48093052382
S11316809093062301E063C100E061C100E05FC103
S113169000E05DC100E05BC101E059C1019739F48C
S11316A061E070E083EF91E208D601E050C100E010
S11316B04EC1213009F03FC03091FC223A30D9F5B7
S11316C0019799F58091F321882389F1C091FF2234
S11316D0D0910023E090F121F090F221D701ED9117
S11316E0FC918481C81728F560E08C2F2CDE082F2C
S11316F0882309F42CC1CE019927880F991FD7019B
S11317001296ED91FC911397E80FF91F0190F08167
S1131710E02D0680F781E02D19958093EE2161E09C
S113172070E08EEE91E2C9D512C100E010C100E074
S11317300EC100E00CC1223009F00BC12091FC2243
S1131740211100C1029779F48091FF2220D690E004
S11317508093EC219093ED2162E070E08CEE91E2B5
S1131760ACD501E0F4C000E0F2C02F7109F090C0E4
S11317708091FC22833009F4E7C018F48130B1F081
S113178087C0853019F0893061F182C080910123CE
S113179090910223892B41F48EE999E080930723E9
S11317A09093082301E0D3C000E0D1C080910123CD
S11317B090910223892B89F48091FD229091FE223D
S11317C0019769F48091F4219091F5218D7F8093A4
S11317D0F4219093F52101E0BAC000E0B8C000E024
S11317E0B6C08091012390910223892B09F046C051
S11317F061D5882309F444C02091FD223091FE2252
S11318003327E0914520F0914620818990E08217AA
S11318109307C0F14DDE8091FD229091FE228093CA
S1131820F321882389F199278150904C880F991FBF
S1131830880F991FE0914720F0914820E80FF91F85
S1131840E093F121F093F2210190F081E02D848165
S11318508823E1F0C0E060E08C2FF1DD082F8823BD
S113186009F475C0CF5FE091F121F091F22101906C
S1131870F081E02D8481C81770F369C000E067C06F
S113188000E065C000E063C001E061C001E05FC04A
S1131890213009F58091FC228B30E9F480910123F9
S11318A090910223892B99F48091F321882389F064
S11318B0C091FF22D091FD228C2F7FDD082F882339
S11318C009F445C06D2F8C2FBADD082F40C000E00D
S11318D03EC000E03CC0223009F03BC08091FC22B5
S11318E0813019F08330B1F031C08091012390919F
S11318F00223892B59F48091FD229091FE22892B99
S113190039F48091FF225ED5082F21C000E01FC06A
S113191000E01DC08091012390910223892B71F472
S11319208091FD229091FE22892B51F4CFEFD2E2D7
S11319308881FAD588814ED6082F09C000E007C0F7
S113194000E005C000E003C000E001C000E00111B8
S113195089C08091FB228F718130C1F58091F32180
S11319608823A1F1C091FF22D09100230091F1219D
S11319701091F221D801ED91FC918481C81730F5C2
S113198060E08C2FE0DC882309F1CE019927880FD1
S1131990991FD8011296ED91FC911397E80FF91F46
S11319A000811181D8011696ED91FC911797199534
S11319B0682F8C2FC8DC882349F0D8011496ED9148
S11319C0FC9115971995082F81114CC08091FB2229
S11319D08F718230D9F58091F321882389F1E091C8
S11319E0F121F091F221A081B18114968C91882388
S11319F049F110E0212F30E0220F331F0280F381E0
S1131A00E02DE20FF31FC081D181EE81FF81199592
S1131A10682F812F98DC082F882321F1EC81FD8128
S1131A201995082F81111EC01F5FE091F121F091DB
S1131A30F221A081B18114968C911817D8F212C0AA
S1131A4000E010C000E00EC000E00CC000E00AC0DE
S1131A50822F807609F07DCF88CE322F307609F040
S1131A6078CF99CD802FDF91CF911F910F91FF9067
S1131A70EF90089543E050E061E080EE97E058DA9B
S1131A8043E050E062E080EE97E052DA43E050E059
S1131A9060E180E696E04CDA41E050E460E280E602
S1131AA096E046DA40E05BE162E080EA96E040DA04
S1131AB040E05BE164E080EA96E03ADA43E050E03B
S1131AC068E080EA96E034DA43E050E061E080E6E2
S1131AD096E02EDA43E050E068E080E096E028DA11
S1131AE043E050E060E280E896E022DA40E05BE127
S1131AF060E180E896E01CDA43E050E062E080E6D2
S1131B0096E016DA43E050E068E080E696E010DA0A
S1131B1040E050E064E080E696E00ADA40E050E01D
S1131B2061E080E096E004DA40E050E062E080E0CA
S1131B3096E0FED940E050E064E080E096E0F8D919
S1131B4041E050E061E080EA96E0F2D943E050E001
S1131B5068E080E496E0ECD940E050E064E080E4A2
S1131B6096E0E6D943E050E068E080E696E0E0D90C
S1131B7040E050E064E080E696E0DAD943E050E0EB
S1131B8068E080E896E0D4D940E050E064E080E882
S1131B9096E0CEC908951BBEFC0128ED24BF6083E6
S1131BA008954091CA01E62FF72F8093CA018491CA
S1131BB04093CA010895CF92DF92EF92FF920F9360
S1131BC01F93CF93DF93EC016A017B01DB01CA0110
S1131BD00197A109B109BC01CD01600F711F821FDA
S1131BE0931FA70196010E94B81C213831054105B5
S1131BF05105F8F4213460F4213260F4213160F4A9
S1131C00293060F4253060F4233060F090E00BC09C
S1131C1093E009C092E007C092E805C091E003C0D8
S1131C2091E801C090E888818C77892B888381E0D2
S1131C3001C08FEFDF91CF911F910F91FF90EF9033
S1131C40DF90CF900895811118C09091E8229923D4
S1131C5089F09FB7F894E6EFF2E2208121502083C7
S1131C609FBF08C09FB7F894E6EFF2E220812F5F90
S1131C7020839FBF8093E82208959091E8229923BE
S1131C8089F3F8CF0F93E8ECF4E080818F7D8083B3
S1131C9080818F7D8083ECEBF2E202E00593109269
S1131CA0BE221092BF2200E2069300E40693E4EB06
S1131CB0F2E200E2069300E40693109207231092E6
S1131CC008231092092310920A23109205231092DC
S1131CD006231092A7220F9108950F9385E0809315
S1131CE0A722EDEBF2E204E00593E5EBF2E204E077
S1131CF005930F9108950F9383E08093A722109288
S1131D00BE221092BF22ECEBF2E202E006930F91A6
S1131D100895E0910723F0910823309709F019956D
S1131D2008950F93CF93DF938091A722833019F402
S1131D30F0DFA8DF60C08091A3229091A422C0911B
S1131D400523D0910623C81BD90B71F52091A52238
S1131D503091A622820F931F8093A5229093A622EE
S1131D6020910123309102238217930721F080915F
S1131D70F621882341F084E08093A722E4EBF2E289
S1131D8002E0069338C0E0910923F0910A233097CA
S1131D9099F01995882381F01092A3221092A4221D
S1131DA0C0910523D0910623C830D10528F01092A4
S1131DB0F621C8E0D0E003C081E08093F621C0930F
S1131DC0BE22D093BF228091A3229091A42220917D
S1131DD0032330910423280F391F2093C02230930A
S1131DE0C122C80FD91FC093A322D093A422ECEB25
S1131DF0F2E202E00693DF91CF910F910895FC0186
S1131E008181877090E0FC013197E730F10520F47F
S1131E10E250FF4F0C94DA1C88E090E0089580E2D1
S1131E2090E0089580E490E0089580E890E00895BB
S1131E3080E091E0089580E092E008958FEF93E0D0
S1131E40089580E190E00895282F2F7030E0220F4C
S1131E50331F992787FD90958827990F881F992705
S1131E60820F931F02979C01220F331F220F331FEF
S1131E70220F331F820F931F89589D4D08950F938E
S1131E80CF938091CC0480FF62C081E08093CC0426
S1131E90E4EBF2E200E80693ECEBF2E200E80693EE
S1131EA08093CA04E4EBF2E200E106938091A72256
S1131EB0882329F08350823008F42BDFE3DE8091FD
S1131EC0B6229091B722089709F043C088E0EBE965
S1131ED0F2E2ABEFB2E201900D928A95E1F7E8EC01
S1131EE0F4E080818062808380818062808334DB3F
S1131EF0C82F811103C0F1DEC1E02CC08091FB2208
S1131F0088236CF41092A5221092A6221092A32288
S1131F101092A42282E08093A72203DF1BC02091A9
S1131F20012330910223232B11F4E5DE13C0109218
S1131F30A5221092A6221092A3221092A42281E03C
S1131F408093A722E4EBF2E202E0069303C0C0E030
S1131F5001C0C1E08C2FCF910F910895BF92CF9211
S1131F60DF92EF92FF920F931F93CF93DF93B82EDC
S1131F706BDFEC011B2D111F1127111F8B2D8F708F
S1131F80E82EF12CEE0CFF1CE10EF11CC701880FAA
S1131F90991F880F991F880F991F9C012C543D4D40
S1131FA07901C9012CDF6C01112309F45BC0D7014D
S1131FB016962D913C9117978D819E81280F391F7C
S1131FC02D833E838B819C8128173907C9F1FC013D
S1131FD0E21BF30B9F012115F4E03F0740F02FEFC4
S1131FE033E0C901B6010E94A41C281B390B888167
S1131FF081FF0AC0C901B6010E94A41C41E0892BDB
S113200009F040E0942F01C090E0888190FB81F9B1
S11320108883D70116961D921C92179712962D93BA
S11320203C93139729813A818D819E81820F931F5E
S113203014968D939C931597F70102E0069398C02C
S1132040888181FF87C08D7F8883D70116961D9272
S11320501C92179712961D921C921397F70102E097
S1132060069386C0D70112960D911C91139788810F
S113207082FF15C0E981FA812D813E818B819C818B
S1132080B6010E94A41CB0E4BB9EB00111246954A3
S11320907E4DAC01CF01820F931F0E94041F2D813E
S11320A03E81200F311F2D833E83EB81FC81E2179B
S11320B0F30710F4ED83FE83D70116968D919C915E
S11320C017978017910709F045C08D819E81E81705
S11320D0F90709F43FC0E81BF90BE115B4E0FB076D
S11320E048F0EFEFF3E0CF01B6010E94A41CE81B17
S11320F0F90B06C0CF01B6010E94A41CE81BF90B22
S1132100D70112961D921C921397EC15FD0578F4D5
S1132110888184608883B0E4BB9EC0011124895403
S11321209E4DF70184839583C682D7820FC029818F
S11321303A818D819E81820F931FD70114968D93CE
S11321409C9315971696ED93FC931797F70102E06D
S113215006930EC0888180FF0BC08E7F8883EF8139
S1132160F885309729F06D817E814B2D80E019959B
S1132170DF91CF911F910F91FF90EF90DF90CF905F
S1132180BF900895CF93CFB7F89481E05CDDEAEC7B
S1132190F4E080E4808380E28083E1ECF4E08081F9
S11321A081608083A9ECB4E08C9182608C93E8EC2C
S11321B0F4E08081806480838C9181608C93808141
S11321C080688083CFBFCF910895CF93DF93C0E61B
S11321D0D0E0188280E30E946207E0ECF4E08081A2
S11321E08064808381E08883CFB7F8941092B5220D
S11321F01092BD221092C5221092CD221092D522A7
S11322001092DD22E7E7F2E280818E7F8083E0E8AE
S1132210F2E280818E7F8083E9E8F2E280818E7F22
S11322208083E2E9F2E280818E7F80836AE170E05C
S113223082E0B7DC8F3F19F08093FA0403C08FE18A
S11322408093FA046BE170E082E0ABDC8F3F19F01D
S11322508093FB0403C08FE18093FB04E0ECF4E083
S113226080818260808380818068808380818061B6
S1132270808384EB92E2868397838081806280836B
S11322808FEF8093C504E8ECF4E080818160808363
S11322901092E8228FB7F894EAEFF2E290819F5F00
S11322A090838FBF6FDFCFBFDF91CF91089580936D
S11322B0C30408958091C3040895809303239093E5
S11322C0042360930523709306230895E82FEF7089
S11322D0F0E0EE0FFF1F992787FD90958827990F4F
S11322E0881F9927E80FF91FEE0FFF1FEE0FFF1F3E
S11322F0EE0FFF1FEC54FD4D8181807C09F043C03B
S11323006370613029F010F480E403C080E801C0F8
S113231080EC40385105E1F050F440325105A1F011
S11323204034510599F04031510561F419C041150B
S113233092E0590789F04F3F93E0590779F041152E
S1132340514041F020E00DC022E00BC023E009C061
S113235024E007C025E005C026E003C027E001C053
S113236021E0118296E09083822B81838181807C9D
S1132370803C21F481818770873039F081818062CB
S1132380818381E0089580E0089581E00895E82F35
S1132390EF70F0E0EE0FFF1F992787FD90958827D7
S11323A0990F881F9927E80FF91FEE0FFF1FEE0FF3
S11323B0FF1FEE0FFF1FEC54FD4D818182FB882728
S11323C080F90895E82FEF70F0E0EE0FFF1F282F3B
S11323D0332727FD30952227330F221F3327E20F9F
S11323E0F31FEE0FFF1FEE0FFF1FEE0FFF1FEC5446
S11323F0FD4D918192FF0EC091819B7F918324DDDD
S1132400FC01808180FF06C08E7F80830780F08579
S1132410E02D199581E008957F928F929F92AF925B
S1132420BF92CF92DF92EF92FF920F931F93CF93BD
S1132430DF93982E862E5A01690106DD7C01792CE2
S1132440771C7724771CC92DCF70D0E0CC0FDD1F0B
S1132450C70DD11DCC0FDD1FCC0FDD1FCC0FDD1F31
S1132460CC54DD4D8981807C09F44CC08981807C09
S1132470803C19F0898182FD47C08FB7F894F70139
S1132480908190FF03C08FBF712C3FC0F7019081F2
S1132490916090838FBFF701A182B282C382D482FC
S11324A01582168207831087811006C091E0C1143B
S11324B0D10419F090E001C091E0F701808190FB14
S11324C081F98B7F8083772019F01E821F8215C0CB
S11324D08981807C803C69F4CE0191DCBC01C60119
S11324E00E94A41C892B29F0F70180818E7F8083B0
S11324F00CC01A821B821E821F82892D2FDD772435
S1132500739403C0712C01C0712C872DDF91CF917E
S11325101F910F91FF90EF90DF90CF90BF90AF90FD
S11325209F908F907F900895FF920F931F93CF9366
S1132530DF93182FF82EFF1CFF24FF1CC82FCF7029
S1132540D0E0CC0FDD1FCF0DD11DCC0FDD1FCC0F84
S1132550DD1FCC0FDD1FCC54DD4D76DCDC01FE012C
S113256002E005938C9180FF12C08E7F8C931796A6
S1132570ED91FC911897309751F0FF2019F06E817E
S11325807F8102C06A817B81412F81E01995DF91AF
S1132590CF911F910F91FF900895CF93C82FC4DF5F
S11325A0EC2FEF70F0E0EE0FFF1F8C2F992787FDC3
S11325B090958827990F881F9927E80FF91FEE0F28
S11325C0FF1FEE0FFF1FEE0FFF1FEC54FD4D118296
S11325D0CF9108950F93E82FEF70F0E0EE0FFF1FF7
S11325E0282F332727FD30952227330F221F332727
S11325F0E20FF31FEE0FFF1FEE0FFF1FEE0FFF1F83
S1132600EC54FD4D91819460918301E006938CDF3D
S113261081E00F9108951F920F920FB60F9211242B
S11326200BB60F920F932F933F934F935F936F9338
S11326307F938F939F93AF93BF93EF93FF93809177
S1132640CB04882334F480E88093CA040E947D0A72
S113265088C08091CB0482FF20C084E08093CA04A8
S11326608091BC2286FF7DC08091CC0481FD79C01D
S113267006DC811176C08091A722813011F43BDB06
S113268070C0843009F06DC0EDEBF2E204E0059314
S1132690E5EBF2E204E0059364C08091CB0481FF92
S11326A05BC082E08093CA048091B42286FF59C043
S11326B08091CC0481FD55C0E2DB811152C0809130
S11326C0A722823041F484E08093A722E4EBF2E273
S11326D002E0069346C0833009F043C0EDEBF2E21A
S11326E004E00593E5EBF2E204E005933AC080E1EF
S11326F08093CA0481E018DF81E816DF0E94580A3B
S11327001092C304E5EBF2E2108296E09093B422B7
S113271080E48083EDEBF2E210829093BC2280830C
S11327208BE992E28093B8229093B922ABDA19C074
S11327308091CB0486FF06C080E48093CA0480E0C5
S113274082DA0FC08091CB0485FF0BC080E28093B6
S1132750CA0481E078DA05C08091CB0484FFE8CF15
S1132760C6CFFF91EF91BF91AF919F918F917F91D0
S11327706F915F914F913F912F910F910F900BBEED
S11327800F900FBE0F901F9018951F920F920FB6C7
S11327900F9211240BB60F920F931F932F933F9315
S11327A04F935F936F937F938F939F93AF93BF9355
S11327B0CF93DF93EF93FF938091CC0481FD03C00B
S11327C05EDB8111B8C082E08093CC048091C504A3
S11327D08195880FE4EBF2E2E81BF1092081318155
S11327E0245B32423695279536952795369527955D
S11327F0822F869520FF02C090E801C090E0890FE7
S1132800E82FEF70F0E0EE0FFF1F282F332727FD8E
S113281030952227330F221F3327E20FF31FEE0FC9
S1132820FF1FEE0FFF1FEE0FFF1FEC54FD4D9081B5
S113283095FF81C000E20693811178C08091A722A0
S1132840843019F466DA1EDA76C0C091B622D091CB
S1132850B72280910523909106230091A322109121
S1132860A42298012C0F3D1F8217930718F4EC0142
S1132870C01BD10B8091032390910423AE016BE91B
S113288072E2800F911F0E94041F0C0F1D1F009302
S1132890A3221093A422289769F48091A5229091F1
S11328A0A622800F911F20910123309102238217C9
S11328B0930788F00093052310930623E0910923DE
S11328C0F0910A23309729F01995811102C005DA95
S11328D032C011DA30C08091052390910623081785
S11328E01907F9F4E0910923F0910A23309711F4C0
S11328F0F4D921C01995811102C0EFD91CC02091CF
S1132900A5223091A6228091A3229091A422820F25
S1132910931F8093A5229093A6221092A322109233
S1132920A422E4EBF2E202E0069305C0803811F43D
S1132930F8D901C013DBFF91EF91DF91CF91BF91E3
S1132940AF919F918F917F916F915F914F913F9143
S11329502F911F910F910F900BBE0F900FBE0F90F0
S11329601F90189543E050E060E180E496E00E94F7
S1132970980743E050E060E280E496E00E94980704
S113298040E050E060E480E496E00E94980743E071
S113299050E060E880E496E00C9498070895CF92A4
S11329A0DF92EF92FF920F931F9380EC98E00E94C6
S11329B0C007C12CD12C760100E814E82EE130E0E8
S11329C041E066E970E280EC98E00E94D707E0EC11
S11329D0F8E08081806480831F910F91FF90EF90D5
S11329E0DF90CF900895BEDFDACF089566E970E2F4
S11329F080EC98E00C941808089566E970E280EC85
S1132A0098E00C942E080895CF93DF931F921F92A1
S1132A10CDB7DEB78CE1898382E08A83E7DF42E0C9
S1132A2050E0BE016F5F7F4F80EC98E00E94F60794
S1132A30E0ECF8E082818823ECF7DFDF0F900F9061
S1132A40DF91CF910895CF93DF931F921F92CDB75B
S1132A50DEB7946099838A83C9DF42E050E0BE0107
S1132A606F5F7F4F80EC98E00E94F607E0ECF8E09F
S1132A7082818823ECF7C1DF0F900F90DF91CF9113
S1132A800895BC0180E090E0C5D22091922030915D
S1132A909320409194205091952028D220E030E05A
S1132AA040E854E46DD320E030E040E85FE3B5D182
S1132AB085D2CB01C8CF0895CF93DF931F921F9285
S1132AC0CDB7DEB788E089831A8290DF42E050E018
S1132AD0BE016F5F7F4F80EC98E00E94F607E0EC48
S1132AE0F8E082818823ECF788DF80DFE0ECF8E00F
S1132AF082818823ECF742E050E0BE016F5F7F4F94
S1132B0080EC98E00E94050878DF898190E0982F96
S1132B1088272A81820F911D0F900F90DF91CF910A
S1132B200895CADF0196BC0180E090E073D220E0F2
S1132B3030E040E85AE324D320919220309193204E
S1132B4040919420509195201BC30895CF93DF9317
S1132B501F921F92CDB7DEB790E0946199838A8368
S1132B6045DF42E050E0BE016F5F7F4F80EC98E0AC
S1132B700E94F607E0ECF8E082818823ECF73DDF61
S1132B8035DFE0ECF8E082818823ECF742E050E0A6
S1132B90BE016F5F7F4F80EC98E00E9405082DDF37
S1132BA08981837090E0982F88272A81820F911D54
S1132BB00F900F90DF91CF910895CF92DF92EF9213
S1132BC0FF921F93CF93DF9389E3C0DF182F8AE32B
S1132BD0BDDFEC01612F6F7717FF33C070E080E039
S1132BE090E01AD26B017C01BE017727882777FD1C
S1132BF08095982F11D220E030E040E85BE3C0D20A
S1132C009B01AC01C701B60109D120E030E44CE1DD
S1132C1056E4B6D220E030E048EC52E467D120E03C
S1132C2030E44CE156E4FAD0C9D180E090E0F2D12E
S1132C306093922070939320809394209093952096
S1132C4034C070E080E090E0E7D16B017C01BE010C
S1132C507727882777FD8095982FDED120E030E014
S1132C6040E85BE38DD29B01AC01C701B601D6D02D
S1132C7020E030E44CE156E483D220E030E048EC3C
S1132C8052E434D19B01AC0160E070E48CE196E441
S1132C90C4D094D180E090E0BDD160939220709331
S1132CA093208093942090939520DF91CF911F914E
S1132CB0FF90EF90DF90CF900895992787FD90952E
S1132CC0A92FB92FFC01F097EA30F105A8F4EB5FC6
S1132CD0FE4F70C680E0089582E0089583E0089571
S1132CE084E0089585E0089586E0089587E00895D6
S1132CF088E0089589E008958FEF089581E00895AC
S1132D000F931F93CF93DF93182F092F61E070E087
S1132D1080E490E055D6D82FC92F0F931F9326E552
S1132D2031E23F932F939F938F930E945C1F0F90E8
S1132D300F900F900F900F900F908D2F9C2FDF917D
S1132D40CF911F910F910895EF92FF920F931F93CC
S1132D50CF93DF93162F072FF82EE92E61E070E052
S1132D6080E490E02DD6D82FC92FEF92FF920F93D5
S1132D701F9329E531E23F932F939F938F930E94F2
S1132D805C1F8DB79EB708968DBF9EBF8D2F9C2F5D
S1132D90DF91CF911F910F91FF90EF9008950E94C2
S1132DA03A0D0E94DF0687E0E0EAF0E0828378943F
S1132DB00E94560A0E94BB0216DE26DEC0EED7E051
S1132DC011E0B12E02E0C12C0F2EF9E0DF2EF02D20
S1132DD00F2EFDE3EF2EF02DF12CBE820E94A405F0
S1132DE01D830E830E94E3050D831E830E94220629
S1132DF01D830E830E9461060D831E830E94A0061C
S1132E001D838C2D9D2DAE2DBF2D0197A109B109D8
S1132E100097A105B105C9F7E0CF5058BB27AA27F1
S1132E200ED070C161D130F066D120F031F49F3FF3
S1132E3011F41EF456C10EF4E095E7FB4CC1E92FE2
S1132E4072D180F3BA17620773078407950718F0E5
S1132E5071F49EF58AC10EF4E0950B2EBA2FA02DC5
S1132E600B01B90190010C01CA01A0011124FF2733
S1132E70591B99F0593F50F4503E68F11A16F0402E
S1132E80A22F232F342F4427585FF3CF469537952D
S1132E902795A795F0405395C9F77EF41F16BA0BF2
S1132EA0620B730B840BBAF09150A1F0FF0FBB1FA0
S1132EB0661F771F881FC2F70EC0BA0F621F731FE9
S1132EC0841F48F4879577956795B795F7959E3F46
S1132ED008F0B3CF9395880F08F09927EE0F9795D4
S1132EE087950895D4D008F481E008950CD00AC1E0
S1132EF002D140F0F9D030F021F45F3F19F0EBC07B
S1132F00511134C1EEC00FD198F39923C9F355235D
S1132F10B1F3951B550BBB27AA27621773078407C8
S1132F2038F09F5F5F4F220F331F441FAA1FA9F37E
S1132F3033D00E2E3AF0E0E830D091505040E69570
S1132F40001CCAF729D0FE2F27D0660F771F881FD1
S1132F50BB1F261737074807AB07B0E809F0BB0BC0
S1132F60802DBF01FF2793585F4F2AF09E3F5105E4
S1132F7068F0B1C0FBC05F3FECF3983EDCF386958C
S1132F8077956795B795F7959F5FC9F7880F911D5A
S1132F909695879597F90895E1E0660F771F881F46
S1132FA0BB1F621773078407BA0720F0621B730BF9
S1132FB0840BBA0BEE1F88F7E0950895BCD088F017
S1132FC09F5790F0B92F9927B751A0F0D1F0660F11
S1132FD0771F881F991F1AF0BA95C9F712C0B1302C
S1132FE081F0C3D0B1E00895C0C0672F782F88273F
S1132FF0B85F39F0B93FCCF3869577956795B3956B
S1133000D9F73EF490958095709561957F4F8F4FD9
S11330109F4F0895E89409C097FB3EF490958095DE
S1133020709561957F4F8F4F9F4F9923A9F0F92F8A
S113303096E9BB279395F695879577956795B79508
S1133040F111F8CFFAF4BB0F11F460FF1BC06F5FEE
S11330507F4F8F4F9F4F16C0882311F096E911C000
S1133060772321F09EE8872F762F05C0662371F021
S113307096E8862F70E060E02AF09A95660F771F35
S1133080881FDAF7880F9695879597F90895990F11
S11330900008550FAA0BE0E8FEEF16161706E8071E
S11330A0F907C0F012161306E407F50798F0621B3F
S11330B0730B840B950B39F40A2661F0232B242B14
S11330C0252B21F408950A2609F4A140A6958FEF33
S11330D0811D811D089597F99F6780E870E060E085
S11330E008959FEF80EC089500240A94161617069D
S11330F018060906089500240A94121613061406E5
S113310005060895092E0394000C11F4882352F047
S1133110BB0F40F4BF2B11F460FF04C06F5F7F4FFF
S11331208F4F9F4F089557FD9058440F551F59F0E6
S11331305F3F71F04795880F97FB991F61F09F3FA0
S113314079F087950895121613061406551FF2CFC9
S11331504695F1DF08C0161617061806991FF1CF19
S113316086957105610508940895E894BB27662740
S11331707727CB0197F908958ADF08F48FEF089534
S11331800BD0C0CFB1DF28F0B6DF18F0952309F0DB
S1133190A2CFA7CF1124EACFC6DFA0F3959FD1F326
S11331A0950F50E0551F629FF001729FBB27F00DF1
S11331B0B11D639FAA27F00DB11DAA1F649F662746
S11331C0B00DA11D661F829F2227B00DA11D621F95
S11331D0739FB00DA11D621F839FA00D611D221F4F
S11331E0749F3327A00D611D231F849F600D211D33
S11331F0822F762F6A2F11249F5750408AF0E1F0D6
S113320088234AF0EE0FFF1FBB1F661F771F881F1E
S113321091505040A9F79E3F510570F05CCFA6CF66
S11332205F3FECF3983EDCF3869577956795B79509
S1133230F795E7959F5FC1F7FE2B880F911D969533
S1133240879597F908952F923F924F925F926F92CC
S11332507F928F929F92AF92BF92CF92DF92EF9222
S1133260FF920F931F93CF93DF93CDB7DEB763978E
S1133270CDBFDEBF7C011B016A01FC0116821782EF
S1133280838181FF49C3BE016F5F7F4F4B01F7010B
S11332909381F10193FD859193FF81911F0188230F
S11332A009F436C3853239F493FD859193FF8191F6
S11332B01F01853231F4B70190E0CCD55601650188
S11332C0E6CF10E0512C20E02032A0F48B3269F0DC
S11332D030F4803259F0833269F420612CC08D328D
S11332E039F0803339F4216026C02260246023C081
S11332F0286021C027FD27C030ED380F3A3078F41C
S113330026FF06C0FAE01F9F300D1124132F13C0AF
S11333106AE0569E300D1124532E20620CC08E326A
S113332021F426FDF5C2206406C08C3611F4206811
S113333002C0883641F4F10193FD859193FF819198
S11333401F018111C1CF9BEB980F933018F42061BA
S1133350805E06C09BE9980F933008F09AC12F7ED7
S113336026FF16E02F73722E853621F4F22FF064B7
S11333707F2E08C0863621F4622F6068762E02C044
S11333801111115077FE07C01C3348F444244394B0
S1133390410E27E00BC0183030F4212F06C027E07F
S11333A04CE3442E03C027E017E0412C560174E09F
S11333B0A70EB11CF6016081718182819381042D75
S11333C0A4013FD46C01098100FF02C003FF06C0C1
S11333D071FC07C072FC08C0612C08C03DE2632E7A
S11333E005C02BE2622E02C090E2692E802F8C7001
S11333F081F1662011F084E001C083E0851510F0AE
S1133400512C0AC0581A73FC07C0B70180E290E03F
S113341021D55A94D1F7F4CF662021F0B701862D37
S113342090E018D503FD03C002E212E002C00EE1F1
S113343012E0F72DF0717F2EF8018491882309F4AE
S11334405EC271108052B70190E004D50F5F1F4F28
S1133450F3CF77FE0FC04C0C04FF04C08A81813384
S113346009F44A94141474F5F8E0F41578F588E036
S1133470482E2CC076FC2AC0812F90E08C159D0527
S11334809CF06CEFC6166FEFD60674F0772D70685B
S1133490772E0AC0E2E0F0E0EC0FFD1FE10FF11D12
S11334A08081803319F411501111F4CF77FE0EC0CE
S11334B044244394410E812F90E0C816D9062CF47D
S11334C01C1904C04424439401C010E077FE07C0D3
S11334D01C141D043CF496012F5F3F4F05C025E0EA
S11334E030E002C021E030E0662011F02F5F3F4F52
S11334F0112331F0412F50E04F5F5F4F240F351FF0
S1133500452D50E02417350714F4521A01C0512CEC
S1133510872D897041F4552031F0B70180E290E0A5
S113352099D45A94F8CF662021F0B701862D90E003
S113353091D473FC08C0552031F0B70180E390E0CA
S113354089D45A94F8CF77FE5DC09C2D8D2DD7FE7B
S113355002C090E080E0692E782E40E050E0C60181
S1133560841991098C879D87960126193709280D9E
S1133570391D812F90E0EE27FF27E81BF90BEE871A
S1133580FF87FFEF6F167F0661F4B7018EE290E0CC
S11335902B8B3A8B488B598B5DD4598948893A894E
S11335A02B89C614D70454F06C857D856615770580
S11335B02CF4F901E40FF51F818101C080E371E06F
S11335C0671A71084F5F5F4FEE85FF856E167F06A1
S11335D064F0B70190E02B8B3A8B488B598B3AD42B
S11335E02B893A8948895989CCCF6C147D0439F4E4
S11335F09A81963318F4953311F404FF81E3B701EB
S113360090E045C08A81813309F00F7EB70190E0D4
S113361021D4111105C074FE16C085E490E015C0D4
S1133620B7018EE290E016D482E066246394680EBB
S1133630F401E80FF11D8081B70190E00BD4115023
S113364051F3862DF2CF85E690E0B70103D4D7FC81
S113365005C0C114D10439F404FF05C0D194C19448
S1133660D1088DE201C08BE2B70190E0F3D380E38F
S11336706AE0C616D1042CF08F5FFAE0CF1AD108A5
S1133680F7CFB70190E0E6D3B701C601C096E2D305
S113369036C1833631F0833779F0833509F054C06D
S11336A020C0560172E0A70EB11CF6018081898307
S11336B001E010E0640113C05601F2E0AF0EB11C4A
S11336C0F601C080D18026FF03C0612F70E002C0E4
S11336D06FEF7FEFC6012B8BB2D38C012B892F7731
S11336E014C05601F2E0AF0EB11CF601C080D180C7
S11336F026FF03C0612F70E002C06FEF7FEFC601A9
S11337002B8B77D38C012B892068722E23FD18C054
S1133710852D90E00817190798F4B70180E290E02E
S113372099D35A94F5CFF60177FC859177FE819170
S11337306F01B70190E08ED351105A9401501109D2
S11337400115110581F7DBC0843611F0893649F57E
S1133750560127FF09C0F4E0AF0EB11CF6016081E9
S11337607181828193810AC0F2E0AF0EB11CF6012F
S113377060817181882777FD8095982F022F0F76BD
S113378097FF08C090958095709561957F4F8F4FF6
S11337909F4F00682AE030E0A401B6D3C82EC818B1
S11337A03DC0022F853721F40F7E2AE030E01DC092
S11337B0097F8F3691F018F4883559F0A9C0803705
S11337C019F0883711F0A4C0006104FF09C0046037
S11337D007C024FF08C0066006C028E030E005C02A
S11337E020E130E002C020E132E0560107FF09C0C9
S11337F0F4E0AF0EB11CF601608171818281938186
S113380008C0F2E0AF0EB11CF6016081718180E066
S113381090E0A40179D3C82EC8180F7706FF0BC017
S1133820202F2E7FC11650F404FF0AC002FD08C0E9
S1133830202F2E7E05C0DC2C202F03C0DC2C01C0E1
S1133840D12E24FF0DC0FE01EC0DF11D80818033CB
S113385011F4297E09C022FF06C0D394D39404C076
S1133860822F867809F0D39423FD12C020FF06C06E
S11338701C2DD51418F4150D1D19D52CD51460F470
S1133880B70180E290E02B8BE5D2D3942B89F6CF5D
S1133890D51410F45D1801C0512C24FF11C0B701D8
S11338A080E390E02B8BD6D22B8922FF16C021FF18
S11338B003C088E590E002C088E790E0B7010CC03F
S11338C0822F867851F021FD02C080E201C08BE294
S11338D027FD8DE2B70190E0BDD2C11630F4B701E7
S11338E080E390E0B7D21150F8CFCA94F401EC0D04
S11338F0F11D8081B70190E0ADD2C110F6CF552003
S113390009F4DDCCB70180E290E0A4D25A94F7CF59
S1133910F7018681978102C08FEF9FEF6396CDBF39
S1133920DEBFDF91CF911F910F91FF90EF90DF9059
S1133930CF90BF90AF909F908F907F906F905F904B
S11339404F903F902F900895AA1BBB1B51E107C0D5
S1133950AA1FBB1FA617B70710F0A61BB70B881F1B
S1133960991F5A95A9F780959095BC01CD010895AA
S1133970A1E21A2EAA1BBB1BFD010DC0AA1FBB1F6F
S1133980EE1FFF1FA217B307E407F50720F0A21BE1
S1133990B30BE40BF50B661F771F881F991F1A944E
S11339A069F760957095809590959B01AC01BD0178
S11339B0CF010895EE0FFF1F0590F491E02D1994A7
S11339C00F931F93CF93DF93869F8001879F100DE2
S11339D0969F100D1124C8010DD0EC01009721F021
S11339E0A80160E070E019D2CE01DF91CF911F9160
S11339F00F910895CF93DF938230910510F482E004
S1133A0090E0E0910D23F0910E2320E030E0A0E05F
S1133A10B0E0309739F14081518148175907B8F027
S1133A204817590771F482819381109729F01296EF
S1133A308D939C9313972CC080930D2390930E2306
S1133A4027C02115310531F04217530718F0A90199
S1133A50DB0101C0EF019A01BD01DF010280F381A6
S1133A60E02DD7CF21153105F9F0281B390B24306F
S1133A70310580F48A819B816115710521F0FB0178
S1133A808283938304C080930D2390930E23FE01BD
S1133A90329644C0FE01E20FF31F819391932250AA
S1133AA03109288339833AC020910B2330910C23A8
S1133AB0232B41F4209102203091032020930B23E7
S1133AC030930C23209100203091012021153105E1
S1133AD041F42DB73EB74091042050910520241B9A
S1133AE0350BE0910B23F0910C23E217F307A0F4BC
S1133AF02E1B3F0B2817390778F0AC014E5F5F4F40
S1133B002417350748F04E0F5F1F40930B23509343
S1133B100C238193919302C0E0E0F0E0CF01DF91A8
S1133B20CF910895CF93DF93009709F487C0FC01E8
S1133B30329712821382C0910D23D0910E232097C5
S1133B4081F420813181280F391F80910B239091BA
S1133B500C238217930779F5E0930B23F0930C233E
S1133B606DC0DE0120E030E0AE17BF0750F41296BE
S1133B704D915C9113979D014115510509F1DA01AD
S1133B80F3CFA283B38340815181840F951F8A1799
S1133B909B0771F48D919C911197840F951F029648
S1133BA08083918312968D919C9113978283938342
S1133BB02115310529F4E0930D23F0930E233EC023
S1133BC0D9011296ED93FC9313974D915D91A40F37
S1133BD0B51FEA17FB0779F480819181840F951F43
S1133BE00296D9018D939C931197828193811296A9
S1133BF08D939C931397E0E0F0E08A819B8100977A
S1133C0019F0FE01EC01F9CFCE0102962881398129
S1133C10820F931F20910B2330910C23281739070F
S1133C2069F4309729F410920D2310920E2302C0E8
S1133C3012821382C0930B23D0930C23DF91CF9174
S1133C400895283008F027E03327DA01990F311D51
S1133C5087FD916000966105710539F432602E5F2D
S1133C603D9330E32A95E1F708959F3F30F0803883
S1133C707105610509F03C5F3C5F3D93913008F0AC
S1133C808068911DDF93CF931F930F93FF92EF9260
S1133C90192F987F9695E92F96959695E90FFF270A
S1133CA0E058FD4F99273327EE24FF24A701E701AD
S1133CB005900894079428F4360FE71EF81E491F50
S1133CC0511D660F771F881F991F0694A1F7059051
S1133CD0079428F4E70EF81E491F561FC11D770FDD
S1133CE0881F991F661F0694A1F70590079428F46E
S1133CF0F80E491F561FC71FD11D880F991F661F35
S1133D00771F0694A1F70590079420F4490F561FD6
S1133D10C71FD81F990F661F771F881F0694A9F71E
S1133D2084911095177041F0D695C795579547958E
S1133D30F794E7941A95C1F7E6E2F2E068941590D7
S1133D40159135916591959105907FE27395E118F0
S1133D50F10A430B560BC90BD009C0F7E10CF11E55
S1133D60431F561FC91FD01D7EF4703311F48A956A
S1133D70E6CFE894015030F0080F0AF40027021748
S1133D8008F4202F2395022F7A3328F079E37D93CA
S1133D902A95E9F710C07D932A9589F6069497959C
S1133DA06795379517951794E118F10A430B560B4D
S1133DB0C90BD00998F023957E9173957A3308F056
S1133DC070E37C932013B8F77E9170617D9330F09B
S1133DD0839571E37D9370E32A95E1F71124EF90C5
S1133DE0FF900F911F91CF91DF91992787FD9095B7
S1133DF00895FC010590615070400110D8F780953A
S1133E0090958E0F9F1F0895FB01DC0102C0019065
S1133E100D9241505040D8F70895DC0101C06D93D4
S1133E2041505040E0F70895FB01DC010D90002063
S1133E30E9F7119701900D920020E1F70895FC0134
S1133E406150704001900110D8F7809590958E0FC5
S1133E509F1F08950F931F93CF93DF93182F092F5C
S1133E60EB018B8181FD03C08FEF9FEF20C082FFA8
S1133E7010C04E815F812C813D81421753077CF431
S1133E80E881F9819F012F5F3F4F28833983108395
S1133E9006C0E885F985812F1995892B29F72E818C
S1133EA03F812F5F3F4F2E833F83812F902FDF91E0
S1133EB0CF911F910F9108950F931F93CF93DF9389
S1133EC0CDB7DEB72E97CDBFDEBF0E891F8986E042
S1133ED08C8309831A838FEF9FE78D839E83AE01C2
S1133EE0465E5F4F688D798DCE010196ACD9EF8126
S1133EF0F885E00FF11F10822E96CDBFDEBFDF9153
S1133F00CF911F910F910895FA01AA27283051F1FA
S1133F10203181F1E8946F936E7F6E5F7F4F8F4FF6
S1133F209F4FAF4FB1E03ED0B4E03CD0670F781F55
S1133F30891F9A1FA11D680F791F8A1F911DA11D3A
S1133F406A0F711D811D911DA11D20D009F4689473
S1133F503F912AE0269F11243019305D3193DEF61B
S1133F60CF010895462F4770405D4193B3E00FD0D1
S1133F70C9F7F6CF462F4F70405D4A3318F0495DBC
S1133F8031FD4052419302D0A9F7EACFB4E0A6959F
S1133F909795879577956795BA95C9F700976105C1
S1133FA0710508959B01AC010A2E06945795479517
S1133FB037952795BA95C9F7620F731F841F951F0C
S10B3FC0A01D0895F894FFCF41
S1133FC800000F23200006FFFF0901A101090209CF
S1133FD803150026FF0075089540810209040905A8
S1133FE8150026FF00750895409102090609071572
S1133FF80026FF0075089504B102C0850844089896
S113400808450800007C204B20000052204F203B2C
S1134018200009022900010100803209040000027D
S11340280300000009211101000122350007058160
S113403803400004070502034000040012010002C3
S113404800000008EB03022400010000000104033F
S1134058090400401C46144E6F6D696E616C205251
S11340686573697374616E63652073657420746F16
S11340783A200056617220526573697374616E63E5
S1134088652073657420746F3A200056617220525B
S11340986573697374616E63652056616C75652018
S11340A873657420746F3A2000524441432052656A
S11340B873697374616E63652069733A20005244AE
S11340C841432056616C75652069733A20004D653B
S11340D86D6F72792076616C7565732069733A2007
S11340E800556E6964656E74696669656420436F1A
S11340F86D6D616E642000505656563A0050564312
S1134108433A005056503A005056564F433A0050DE
S1134118564953433A002564002567002563000087
S9030000FC
